:030000000205F7FF
:0C05F700787FE4F6D8FD75811A02027AC4
:0A060E003F065B4F666D7D077F6FAE
:10027A00E4F5081205C11206180508E50875F032FA
:10028A0084E5F07014120401E4FBFA792078411233
:10029A0000031201478E098F0A7509FB750A43C3C9
:1002AA00E509648094805010C3E4950AF50AE49540
:1002BA0009F509750B408003E4F50BAE09AF0A7C1A
:1002CA00037DE81201E1740E2FF58274063EF58370
:1002DA00E493F50CAE09AF0A7C037DE81201E1AAAA
:1002EA0004AB057D647C00AF03AE021201E1740E1B
:1002FA002FF58274063EF583E493F50D7D647C0048
:10030A00AF03AE021201E1AA04AB057D0A7C00AF7D
:10031A0003AE021201E1740E2FF58274063EF583D4
:10032A00E4934480F50E7D0A7C00AF03AE0212010D
:10033A00E1740E2DF58274063CF583E493F50F7F84
:10034A000B7D0412035F7B007A00790BE4FDFF1238
:05035A00035F020283B5
:1005A700EF1FAA0670011E4A600F7D6EEDD39400FF
:0905B7007480948040EA1D80F379
:0105C0002218
:0B060300EF1FAC0670011E4C70F622C9
:1005D500C2B77F467E00120603D2B77F027E0002B5
:0205E50006030B
:10047C00E4F51830B716C3E51894147480948050C2
:10048C000B05187F017E0012060380E7C3E5189464
:10049C00147480948040037F0122E4F51820B71671
:1004AC00C3E518941474809480500B05187F017E5A
:1004BC000012060380E7C3E51894147480948040FE
:0604CC00037F01227F0006
:0104D2002207
:10054E00E4F51AC2B70000D2B7000030B705751A2D
:0F055E00018003E4F51A7F057E00120603AF1A31
:01056D00226B
:1004D300E4F518F519FFF518E518C394087480942A
:1004E30080501612054EEFC43333335480FEE519A2
:0B04F300C3134EF519051880DFAF1988
:0104FE0022DB
:10056E00EF600DC2B70000D2B77F067E0002060311
:0E057E00C2B77F067E00120603D2B70000222D
:0204FF008F1854
:10050100E4F519F51AF519C3E51994087480948076
:100511005015E5185401F51AE518C313F518AF1A6B
:0705210012056E051980E0D0
:0105280022B0
:1005E7001205D512047C7FCC1204FF7F440204FF5E
:060618001205D502047C6E
:10040100E4FFF515F516F5171205E71205D51204E7
:100411007C7FCC1204FF7FBE1204FF1204D38F1520
:100421001204D3EFFE7C00E42515F517EC3EF5161A
:1004310054F8FEEEB4F821E517F4FFE516F4FEEFEB
:100441002401F517E43EF516FCAD17E412010EE4A4
:10045100FBFA798078BD800FAC16AD17E412010E5E
:10046100E4FBFA7980783D1200038F148E138D120C
:0A0471008C11AF14AE13AD12AC11E4
:01047B00225E
:10058C00C2A6C2A5C2A78F807F017E001205A7D28A
:0B059C00A77F017E001205A7C2A72266
:0A052900AB12AA13A9141201C8FFB7
:10053300D2A6C2A5C2A78F807F017E001205A7D2D3
:0B054300A77F017E001205A7C2A722BF
:1005C1007F3812058C7F0C12058C7F0612058C7FFB
:0405D1000102058C92
:05061E007F0102058CC4
:08035F008F118B128A1389141F
:10036700E4F515EDFF7E00D394017480948040037B
:10037700020400E511940F74809480507CC3EF94BD
:1003870001748094805039AB12AA13A9141201C8C2
:100397006067C374109511FFE515C39FE5155006F7
:1003A700248025118004251124B0FF12058C120525
:1003B7002974012514F514E43513F513051580C7C1
:1003C700AB12AA13A9141201C8602EC37410951199
:1003D700FFE515C39FE515500624C02511800425A8
:1003E700112470FF12058C12052974012514F514C8
:0903F700E43513F513051580C768
:0104000022D9
:10000300EC4D6011E8497017ED33EC3304600DE4F7
:10001300FCFFFEFD22E933E8330470F80201B3125A
:10002300017E58046009E4CC24815006285009025B
:1000330001BD2840030201BAC0E0EB4A7044B98015
:1000430006D0E0FB0201A9EF4E701CBD8008EBFF58
:10005300EAFEE9FD80EBE98DF0A4FEE5F00200EC99
:10006300E9CDF9EAFEEBFFEF89F0A4FCE5F0CE89D8
:10007300F0A42EFFE435F0CD89F0A42DFEE435F095
:100083008067EF4E7005BD80D780C3EF8BF0A4ACC3
:10009300F0EE8BF0A42CFCE435F0F8EF8AF0A42CFE
:1000A300E5F038FCE433CB8DF0A42CFCE5F03BF811
:1000B300EE8AF0A42CFCE5F038F8E433CF89F0A401
:1000C3002CFCE5F038CF3400CE89F0A42FFFE5F007
:1000D3003EFEE433C98DF0A42EFEE5F039CD8AF05F
:1000E300A42FFFE5F03EFEE43DFD33D0E0FB5007D7
:1000F3000BBB000F0201BDEC2CFCEF33FFEE33FE14
:06010300ED33FD02019541
:1001090075F020800E75F010800575F0087D007E71
:10011900007F003392D530D503120217EC3340101B
:10012900EF33FFEE33FEED33FDEC33FCD5F0ED227A
:0E013900E5F0247EA2D513CC92E7CDCEFF22B6
:10014700EDD2E7CD33EC3392D524814006E4FFFEB0
:10015700FDFC22FCE4CFCECDCC24E0501174FF800F
:10016700EDC3CC13CCCD13CDCE13CECF13CF0470AC
:07017700F030D5DE02021793
:10017E00E9D2E7C933E833F892D5EDD2E7CD33ECC7
:07018E0033FC5002B2D52240
:10019500EC30E7100FBF000C0EBE00080DBD0004CB
:1001A5000BEB6014A2D5EB13FCED92E7FD2274FF77
:1001B500FCFDFEFF22E480F8A2D574FF13FC7D80D0
:0301C500E480EFE4
:1001C800BB010689828A83E0225002E722BBFE0235
:0901D800E32289828A83E4932268
:1001E100C2D5EC30E709B2D5E4C39DFDE49CFCEE39
:1001F10030E715B2D5E4C39FFFE49EFE120225C38A
:10020100E49DFDE49CFC800312022530D507C3E484
:060211009FFFE49EFE22A7
:0E021700C3E49FFFE49EFEE49DFDE49CFC22F8
:10022500BC000BBE0029EF8DF084FFADF022E4CCBD
:10023500F875F008EF2FFFEE33FEEC33FCEE9DEC86
:10024500984005FCEE9DFE0FD5F0E9E4CEFD22EDCC
:10025500F8F5F0EE8420D21CFEADF075F008EF2F16
:10026500FFED33FD4007985006D5F0F222C398FD07
:050275000FD5F0EA22A4
:00000001FF
